:020000040800F2
:1000000000000320FD410008AD3F0008B33F000899
:10001000BF3F0008C53F0008CB3F000800000000BC
:10002000000000000000000000000000D13F0008B8
:10003000DF3F000800000000ED3F0008FB3F000824
:100040004D4200084D4200084D4200084D42000854
:100050004D4200084D4200084D4200084D42000844
:100060004D4200084D4200084D4200084D42000834
:100070004D4200084D4200084D4200084D42000824
:100080004D4200084D4200084D4200084D42000814
:100090004D4200084D4200084D4200084D42000804
:1000A0004D4200084D4200084D4200084D420008F4
:1000B0004D4200084D4200084D4200084D420008E4
:1000C0004D4200084D4200084D4200084D420008D4
:1000D0004D4200084D4200084D4200084D420008C4
:1000E0004D4200084D4200084D4200084D420008B4
:1000F0004D420008094000084D4200084D420008EA
:100100004D4200084D4200084D4200084D42000893
:100110004D4200084D4200082540000839400008C3
:100120004D4200084D4200084D4200084D42000873
:100130004D4200084D4200084D4200084D42000863
:100140004D4200084D4200084D4200084D42000853
:100150004D4200084D4200084D4200084D42000843
:100160004D4200084D4200084D4200084D42000833
:100170004D4200084D4200084D42000800000000BA
:100180004D4200084D4200084D4200084D42000813
:100190004D4200084D4200084D4200084D42000803
:0C01A0004D4200084D4200084D4200088E
:1001B00010B5054C237833B9044B13B10448AFF3A1
:1001C00000800123237010BDEC010020000000001E
:1001D000B4BC000808B5034B1BB103490348AFF397
:1001E000008008BD00000000F0010020B4BC000841
:1001F000034613F8012B002AFBD1181A0138704767
:1002000001F0FF01102A2BDB10F0070F08D010F8C7
:10021000013B013A8B422DD010F0070F42B3F6D1CB
:10022000F0B441EA012141EA014122F007047FF0E4
:1002300000070023F0E80256083C85EA010586EA3B
:10024000010685FA47F5A3FA87F586FA47F6A5FA77
:1002500087F68EB9EED1F0BC01F0FF0102F0070283
:1002600032B110F8013B013A83EA010313B1F8D12E
:100270000020704701387047002D06BF354603380F
:10028000073815F0010F07D1013015F4807F02BF48
:10029000013015F4C03F0130F0BC0138704700BF99
:1002A00081F0004102E000BF83F0004330B54FEA27
:1002B00041044FEA430594EA050F08BF90EA020F94
:1002C0001FBF54EA000C55EA020C7FEA645C7FEA27
:1002D000655C00F0E2804FEA5454D4EB5555B8BF4A
:1002E0006D420CDD2C4480EA020281EA030382EABB
:1002F000000083EA010180EA020281EA0303362D4D
:1003000088BF30BD11F0004F4FEA01314FF4801C1F
:100310004CEA113102D0404261EB410113F0004F31
:100320004FEA03334CEA133302D0524263EB4303E8
:1003300094EA050F00F0A780A4F10104D5F1200E86
:100340000DDB02FA0EFC22FA05F2801841F10001E1
:1003500003FA0EF2801843FA05F359410EE0A5F1B5
:1003600020050EF1200E012A03FA0EFC28BF4CF0E6
:10037000020C43FA05F3C01851EBE37101F000459C
:1003800007D54FF0000EDCF1000C7EEB00006EEBA9
:100390000101B1F5801F1BD3B1F5001F0CD3490833
:1003A0005FEA30004FEA3C0C04F101044FEA44528A
:1003B00012F5800F80F09A80BCF1004F08BF5FEA11
:1003C000500C50F1000041EB045141EA050130BDF1
:1003D0005FEA4C0C404141EB0101013C28BFB1F503
:1003E000801FE9D291F0000F04BF01460020B1FA4E
:1003F00081F308BF2033A3F10B03B3F120020CDA21
:100400000C3208DD02F1140CC2F10C0201FA0CF0FE
:1004100021FA02F10CE002F11402D8BFC2F1200C63
:1004200001FA02F120FA0CFCDCBF41EA0C01904019
:10043000E41AA2BF01EB0451294330BD6FEA040462
:100440001F3C1CDA0C340EDC04F11404C4F120024D
:1004500020FA04F001FA02F340EA030021FA04F35F
:1004600045EA030130BDC4F10C04C4F1200220FAB6
:1004700002F001FA04F340EA0300294630BD21FAF4
:1004800004F0294630BD94F0000F83F4801306BFBA
:1004900081F480110134013D4EE77FEA645C18BFAE
:1004A0007FEA655C29D094EA050F08BF90EA020F45
:1004B00005D054EA000C04BF1946104630BD91EA3D
:1004C000030F1EBF0021002030BD5FEA545C05D140
:1004D0004000494128BF41F0004130BD14F580047F
:1004E0003CBF01F5801130BD01F0004545F0FE41F3
:1004F00041F470014FF0000030BD7FEA645C1ABF28
:10050000194610467FEA655C1CBF0B46024650EA5E
:10051000013406BF52EA033591EA030F41F400218A
:1005200030BD00BF90F0000F04BF0021704730B510
:100530004FF4806404F132044FF000054FF00001E5
:1005400050E700BF90F0000F04BF0021704730B5A6
:100550004FF4806404F1320410F0004548BF40427B
:100560004FF000013EE700BF42004FEAE2014FEAD0
:1005700031014FEA02701FBF12F07F4393F07F4FAB
:1005800081F06051704732F07F4208BF704793F0AE
:100590007F4F04BF41F40021704730B54FF46074C1
:1005A00001F0004521F000411CE700BF50EA0102C4
:1005B00008BF704730B54FF000050AE050EA01026D
:1005C00008BF704730B511F0004502D5404261EBDD
:1005D00041014FF4806404F132045FEA915C3FF41E
:1005E000D8AE4FF003025FEADC0C18BF03325FEABB
:1005F000DC0C18BF033202EBDC02C2F1200300FA6C
:1006000003FC20FA02F001FA03FE40EA0E0021FA90
:1006100002F11444BDE600BF70B54FF0FF0C4CF47E
:10062000E06C1CEA11541DBF1CEA135594EA0C0F30
:1006300095EA0C0F00F0DEF82C4481EA030621EA6B
:100640004C5123EA4C5350EA013518BF52EA0335A6
:1006500041F4801143F4801338D0A0FB02CE4FF058
:100660000005E1FB02E506F00042E0FB03E54FF088
:100670000006E1FB03569CF0000F18BF4EF0010E80
:10068000A4F1FF04B6F5007F64F5407404D25FEA7C
:100690004E0E6D4146EB060642EAC62141EA55512F
:1006A0004FEAC52040EA5E504FEACE2EB4F1FD0C71
:1006B00088BFBCF5E06F1ED8BEF1004F08BF5FEAEF
:1006C000500E50F1000041EB045170BD06F00046A1
:1006D00046EA010140EA020081EA0301B4EB5C044E
:1006E000C2BFD4EB0C0541EA045170BD41F4801146
:1006F0004FF0000E013C00F3AB8014F1360FDEBF6B
:10070000002001F0004170BDC4F10004203C35DA46
:100710000C341BDC04F11404C4F1200500FA05F3C9
:1007200020FA04F001FA05F240EA020001F000426A
:1007300021F0004110EBD37021FA04F642EB0601E0
:100740005EEA430E08BF20EAD37070BDC4F10C040A
:10075000C4F1200500FA04F320FA05F001FA04F2CE
:1007600040EA020001F0004110EBD37041F10001BA
:100770005EEA430E08BF20EAD37070BDC4F12005C5
:1007800000FA05F24EEA020E20FA04F301FA05F22D
:1007900043EA020321FA04F001F0004121FA04F2D5
:1007A00020EA020000EBD3705EEA430E08BF20EAA5
:1007B000D37070BD94F0000F0FD101F000464000DF
:1007C00041EB010111F4801F08BF013CF7D041EA61
:1007D000060195F0000F18BF704703F00046520065
:1007E00043EB030313F4801F08BF013DF7D043EA36
:1007F0000603704794EA0C0F0CEA135518BF95EAEC
:100800000C0F0CD050EA410618BF52EA4306D1D172
:1008100081EA030101F000414FF0000070BD50EA91
:10082000410606BF1046194652EA430619D094EA1B
:100830000C0F02D150EA013613D195EA0C0F05D105
:1008400052EA03361CBF104619460AD181EA030159
:1008500001F0004141F0FE4141F470014FF0000011
:1008600070BD41F0FE4141F4780170BD70B54FF0AC
:10087000FF0C4CF4E06C1CEA11541DBF1CEA13552C
:1008800094EA0C0F95EA0C0F00F0A7F8A4EB05040E
:1008900081EA030E52EA03354FEA013100F0888005
:1008A0004FEA03334FF0805545EA131343EA1263CE
:1008B0004FEA022245EA111545EA10654FEA002683
:1008C0000EF000419D4208BF964244F1FD0404F53C
:1008D000407402D25B084FEA3202B61A65EB030598
:1008E0005B084FEA32024FF480104FF4002CB6EB55
:1008F000020E75EB030E22BFB61A754640EA0C00D5
:100900005B084FEA3202B6EB020E75EB030E22BF14
:10091000B61A754640EA5C005B084FEA3202B6EB55
:10092000020E75EB030E22BFB61A754640EA9C0014
:100930005B084FEA3202B6EB020E75EB030E22BFE4
:10094000B61A754640EADC0055EA060E18D04FEAA2
:10095000051545EA16754FEA06164FEAC30343EA42
:1009600052734FEAC2025FEA1C1CC0D111F4801F0F
:100970000BD141EA00014FF000004FF0004CB6E708
:1009800011F4801F04BF01430020B4F1FD0C88BFA7
:10099000BCF5E06F3FF6AFAEB5EB030C04BFB6EBB2
:1009A000020C5FEA500C50F1000041EB045170BDA5
:1009B0000EF0004E4EEA113114EB5C04C2BFD4EBD2
:1009C0000C0541EA045170BD41F480114FF0000E56
:1009D000013C90E645EA060E8DE60CEA135594EAD2
:1009E0000C0F08BF95EA0C0F3FF43BAF94EA0C0FD5
:1009F0000AD150EA01347FF434AF95EA0C0F7FF44A
:100A000025AF104619462CE795EA0C0F06D152EA9D
:100A100003353FF4FDAE1046194622E750EA410681
:100A200018BF52EA43067FF4C5AE50EA41047FF492
:100A30000DAF52EA43057FF4EBAE12E74FF0FF3CF7
:100A400006E000BF4FF0010C02E000BF4FF0010CC8
:100A50004DF804CD4FEA410C7FEA6C5C4FEA430C41
:100A600018BF7FEA6C5C1BD001B050EA410C0CBF90
:100A700052EA430C91EA030F02BF90EA020F0020F2
:100A8000704710F1000F91EA030F58BF994208BF59
:100A900090422CBFD8176FEAE37040F00100704716
:100AA0004FEA410C7FEA6C5C02D150EA013C07D16D
:100AB0004FEA430C7FEA6C5CD6D152EA033CD3D0B8
:100AC0005DF8040B704700BF8446104662468C46B2
:100AD0001946634600E000BF01B5FFF7B7FF0028E5
:100AE00048BF10F1000F01BD4DF808EDFFF7F4FF0E
:100AF0000CBF012000205DF808FB00BF4DF808ED99
:100B0000FFF7EAFF34BF012000205DF808FB00BFBB
:100B10004DF808EDFFF7E0FF94BF012000205DF8DD
:100B200008FB00BF4DF808EDFFF7CEFF94BF012092
:100B300000205DF808FB00BF4DF808EDFFF7C4FF8B
:100B400034BF012000205DF808FB00BF4FEA410CD4
:100B50007FEA6C5C02D150EA013C0AD14FEA430CB7
:100B60007FEA6C5C02D152EA033C02D14FF00000F4
:100B700070474FF0010070474FEA410212F5001232
:100B800015D211D56FF47873B3EB625212D94FEAD4
:100B9000C12343F0004343EA505311F0004F23FABE
:100BA00002F018BF404270474FF00000704750EA13
:100BB000013005D111F0004008BF6FF000407047D0
:100BC0004FF00000704700BF4A0011D212F500122A
:100BD00011D20DD56FF47873B3EB62520ED44FEA95
:100BE000C12343F0004343EA505323FA02F0704715
:100BF0004FF00000704750EA013002D14FF0FF3053
:100C000070474FF0000070474FEA4102B2F1E043F5
:100C100024BFB3F5001CDCF1FE5C0DD901F0004CE3
:100C20004FEAC0024CEA5070B2F1004F40EB830033
:100C300008BF20F00100704711F0804F21D113F15F
:100C40003872BCBF01F00040704741F480114FEA98
:100C50005252C2F11802C2F1200C10FA0CF320FA21
:100C600002F018BF40F001004FEAC1234FEAD3233E
:100C700003FA0CFC40EA0C0023FA02F34FEA4303A8
:100C8000CCE77FEA625307D150EA01331EBF4FF031
:100C9000FE4040F44000704701F0004040F0FE404C
:100CA00040F40000704700BF53B94AB9002908BF9B
:100CB00000281CBF4FF0FF314FF0FF3000F0A4B907
:100CC000ADF1080C6DE904CE00F03CF8DDF804E06D
:100CD000DDE9022304B0704738B500220023044642
:100CE0000D46FFF70BFF28B920462946BDE83840DE
:100CF00000F00AB8204605F1004100F005F8404236
:100D000061EB410138BD00BFD0B50C4B0022064657
:100D10000F46FFF781FCFFF757FF0446FFF702FC81
:100D2000074B0022FFF778FC02460B463046394657
:100D3000FFF7BAFAFFF748FF2146D0BD0000F03DAB
:100D40000000F0412DE9F047089D04468C46002B39
:100D500040F083808A42174647D9B2FA82F242B104
:100D6000C2F1200024FA00F09140974040EA010CC3
:100D700094404FEA1748230CBCFBF8F61FFA87FE95
:100D800008FB16C143EA014306FB0EF1994209D95B
:100D9000FB1806F1FF3080F01981994240F216816C
:100DA000023E3B445B1AA4B2B3FBF8F008FB1033DD
:100DB00044EA034400FB0EFEA64509D93C1900F1A4
:100DC000FF3380F00581A64540F2028102383C44A1
:100DD00040EA0640A4EB0E0400261DB1D4400023D7
:100DE000C5E900433146BDE8F08702B9FFDEB2FA3B
:100DF00082F2002A50D1CB1B4FEA174E1FFA87F818
:100E00000126B3FBFEFC210C0EFB1C3341EA03411F
:100E100008FB0CF38B4207D979180CF1FF3002D292
:100E20008B4200F2E9808446C91AA3B2B1FBFEF0FE
:100E30000EFB101143EA014408FB00F8A04507D956
:100E40003C1900F1FF3302D2A04500F2D9801846C8
:100E5000A4EB080440EA0C40BFE78B4209D9002DFF
:100E600000F0B1800026C5E9000130463146BDE8FA
:100E7000F087B3FA83F6002E4AD18B4202D3824226
:100E800000F2B880841A61EB030101208C46002D2A
:100E9000A8D0C5E9004CA5E7C2F1200320FA03F66B
:100EA000974001FA02F04FEA174ED9403043030C45
:100EB000B1FBFEF61FFA87F80EFB161143EA014359
:100EC00006FB08F1994204FA02F409D9FB1806F16D
:100ED000FF3C80F08D80994240F28A80023E3B4484
:100EE0005B1A81B2B3FBFEF00EFB103341EA034103
:100EF00000FB08F38B4207D9791800F1FF3C73D24D
:100F00008B4271D902383944CB1A40EA064678E759
:100F1000C6F1200C03FA06F422FA0CF31C4320FA63
:100F20000CF701FA06F34FEA144E21FA0CF11F43B5
:100F30003B0CB1FBFEF91FFA84F80EFB191143EAD2
:100F4000014109FB08FA8A4502FA06F200FA06F3A3
:100F500008D9611809F1FF3048D28A4546D9A9F16C
:100F600002092144A1EB0A01BFB2B1FBFEF00EFB66
:100F7000101147EA014700FB08F8B84507D9E719FF
:100F800000F1FF312ED2B8452CD90238274440EA6F
:100F90000940A7EB0807A0FB02894F45C646494612
:100FA0001AD317D05DB1B3EB0E0267EB010707FA56
:100FB0000CFCF2404CEA0202F740C5E9002700268B
:100FC0003146BDE8F0872E4628460BE70646E9E69F
:100FD0001846FDE64345E5D2B8EB020E69EB040185
:100FE0000138DFE70846D2E760468DE78146B9E77A
:100FF000664675E730464AE7ACF1020C394413E720
:1010000002383C4424E700BF704700BF80B582B07F
:1010100000AF7860391D4FF6FF730122034805F0D9
:1010200026FF7B6818460837BD4680BDD4020020E5
:1010300080B582B000AF03F00BF900F0ADFB01F01A
:101040002DF900F013FC01F0FFF800F0B5FF00F0FF
:101050006DFD00F0A1FE00F069FC00F0BFFC00F0A7
:10106000F7FF00F00FFD00F0B5FD00F059FF01F0B3
:1010700051F800F05BFE00F023FE01F097F800F05D
:10108000E3FE0021B64804F0DFFD0421B54804F07A
:10109000DBFDB54804F00EFDB44804F00BFD04215F
:1010A000B34804F0AFFF0421B24804F0ABFF0421C1
:1010B000B14804F0A7FF0421B04804F0A3FF0421C5
:1010C000AF4804F09FFFAF4B00221A70AE4B0022D6
:1010D0001A800023FB7100237B710023BB71002366
:1010E0003B7142F2107003F025F94021A74803F04C
:1010F000EBFF0346012B05D1A24B01221A700023FE
:10110000BB710DE09F4B00221A70BB79002B07D1F9
:1011100002F0DCFA01F070FF02F0AAF90123BB71C2
:10112000984B1B78002BE0D0994B1B68002B69D1A2
:10113000984B1B68002B65D10421974803F0C4FF2E
:101140000346012B06D195494FF00002944BC1E9AB
:10115000002315E04FF400718F4803F0B5FF0346FC
:10116000012B06D18D494FF000028E4BC1E90023BF
:1011700006E08A494FF000024FF08043C1E90023A6
:10118000864BD3E900014FF00002864BFFF7ACFC21
:101190000346002B0AD001220221834803F0ACFF52
:1011A00000222021794803F0A7FF2BE07B4BD3E9F5
:1011B00000014FF000024FF08043FFF795FC03461B
:1011C000002B0AD000220221774803F095FF01226C
:1011D00020216E4803F090FF14E0704BD3E900012A
:1011E0004FF000026E4BFFF77FFC0346002B09D047
:1011F000012202216C4803F07FFF01222021634875
:1012000003F07AFF4FF40061684803F05DFF034686
:10121000012B4CD101F026FF022002F0A1F9644B12
:1012200000221A70634B00221A80634B00221A704E
:1012300002F076FA01F0CEFE14E04FF480515B48E4
:1012400003F042FF0346012B0CD1FA2003F072F8A1
:1012500001F0AEFE02F03AFA554B01221A70564BDD
:1012600001221A70524B1B78002BE6D041F28830D5
:1012700003F060F801F0C0FE032002F071F94E4B5C
:101280001B78002B13D001224FF40071474803F064
:1012900033FF484B00221A8000BF464B1B88042BAB
:1012A000FBD900224FF40071404803F025FF43486A
:1012B00003F0A8F8C821414803F076F900BF3F4881
:1012C00003F03CFB034603F40073B3F5007FF6D153
:1012D0003A4803F0F4F903469AB2394B1A8037487A
:1012E00003F090F8C821354803F05EF900BF334899
:1012F00003F024FB034603F40073B3F5007FF6D13B
:101300002E4803F0DCF903469AB22E4B1A802C4B80
:101310001B88B3F5487F03D22B4B03221A700BE0D6
:10132000274B1B88B3F5486F03D9274B02221A704D
:1013300002E0254B04221A70224B1B8840F64852CB
:10134000934203D9214B01221A7044E01D4B1B88A4
:10135000B3F57A7F3CD21D4B00221A703BE000BFF0
:10136000B40400209806002018050020E4060020A0
:1013700060050020F4050020D4030020880200202E
:10138000400200204407002020020020000C024000
:10139000100200201402002000140240000000206F
:1013A000000008400000F03F001802400008024022
:1013B000E0060020240200202E0700202004002048
:1013C000F20500201C0400203C02002068040020DC
:1013D0008A4B04221A708A4B1B68002B0AD1894B56
:1013E0001B68002B06D101224FF40071864803F0E0
:1013F00083FE05E000224FF40071834803F07CFE79
:101400000821824803F060FE0346012B05D1804B82
:1014100001221A700123FB711FE0794B1B68002B1E
:101420001BD1784B1B68002B17D1794B00221A7007
:101430000023FB71714B1B78042B09D1754B1B7872
:10144000042B05D101220121704803F055FE04E070
:10145000002201216D4803F04FFE4FF480516E4889
:1014600003F032FE0346012B46D101F0FBFD6B4B2E
:1014700000221A706A4B00221A806A4B00221A70EE
:10148000022002F06DF802F04BF901F0A3FD11E02B
:101490004FF480515D4803F017FE0346002B06D140
:1014A0005E4B01221A705F4B01221A7002E05B4B07
:1014B00000221A70594B1B78002BE9D0584B0022A0
:1014C0001A80584B1B78012B16D101224FF48061F2
:1014D0004E4803F011FE00BF514B1B88092BFBD96E
:1014E00000224FF48061494803F006FE02F0EEF856
:1014F00042F2107002F01EFFFB79012B7FF4F5AD74
:1015000001220121414803F0F7FD3C4B1B78002BE1
:1015100024D1454B01221A803E4B1B78042B06D167
:10152000424B64221A60424B64221A6093E0394BAA
:101530001B78022B06D13D4B50221A603C4B642293
:101540001A6088E0334B1B78032B40F08480374BC4
:1015500064221A60364B50221A607CE0274B1B78BD
:10156000012B29D1304B02221A802A4B1B78042BE5
:1015700008D12E4B6FF040021A602D4B6FF04002E5
:101580001A6068E0234B1B78022B08D1274B6FF0C1
:1015900033021A60264B6FF040021A605BE01D4B6D
:1015A0001B78032B57D1214B6FF040021A60204B60
:1015B0006FF033021A604EE0104B1B78042B4AD1B7
:1015C000144B1B78042B0BD1174B03221A80194B99
:1015D0001B68164A1360184B1B68154A13603AE0E3
:1015E0000C4B1B78022B29D10F4B01221A800F4B79
:1015F00028221A600E4B50221A602CE0680400204A
:1016000014020020100200200004024000080240E2
:10161000220200203C02002000140240E0060020CC
:1016200024020020F00500202002002008020020F3
:101630000C020020180200201C020020494B1B78DD
:10164000032B08D1484B01221A80484B50221A60C4
:10165000474B28221A60444B1B88012B03D0424B76
:101660001B88022B07D1424B1B68424A13603F4B39
:101670001B68414A13603D4B1B681846FEF762FF2A
:101680003E4BD3E90023FEF7C7FF02460B46104648
:1016900019464FF000023A4BFFF7E8F802460B46B6
:1016A00010461946FFF768FA0346304A1360304B7C
:1016B0001B681846FEF746FF304BD3E90023FEF7C0
:1016C000ABFF02460B46104619464FF000022C4B6A
:1016D000FFF7CCF802460B4610461946FFF74CFAC6
:1016E0000346234A13601F4B1B78032B06D10122AC
:1016F0004FF48061234803F0FFFC05E000224FF423
:101700008061204803F0F8FC164B1B78022B06D1B1
:1017100001224FF400411C4803F0EEFC05E00022DA
:101720004FF40041184803F0E7FC184B1B68002BEE
:1017300003DD174B1B68002B0ADC164B1B78012BB3
:1017400006D101224FF400610E4803F0D5FC05E0FC
:1017500000224FF400610B4803F0CEFC642002F03D
:10176000E9FDC2E43C020020200200200802002023
:101770000C0200201C0200201802002000000020A3
:101780000000084000040240001002401402002043
:10179000100200206804002080B594B000AF07F16B
:1017A000200330220021184605F054FE07F10C03F7
:1017B00000221A605A609A60DA601A610023BB60E6
:1017C000284B1B6C274A43F080531364254B1B6C3A
:1017D00003F08053BB60BB6800237B60224B1B6817
:1017E000214A43F4404313601F4B1B6803F44043FA
:1017F0007B607B6801233B624FF4A0237B62022362
:10180000BB634FF48003FB6304233B64A8237B6426
:101810000223BB640423FB6407F12003184603F092
:1018200085FC0346002B01D001F0B2FF0F23FB60C3
:1018300002233B6100237B614FF4A053BB614FF453
:101840008053FB6107F10C030521184603F0E6FE07
:101850000346002B01D001F09BFF00BF5037BD466F
:1018600080BD00BF003802400070004080B584B0E9
:1018700000AF3B4600221A605A609A60DA60284B3B
:10188000284A1A60264B4FF480325A60244B0022BB
:101890009A60234B01221A61214B00221A76204BB9
:1018A000002283F820201E4B0022DA621C4B1E4AC5
:1018B0009A621B4B0022DA60194B0222DA61184B44
:1018C000002283F83020164B01225A61144802F09E
:1018D00055FD0346002B01D001F05AFF05233B6064
:1018E00001237B600323BB603B4619460C4802F092
:1018F000F3FE0346002B01D001F04AFF06233B60B4
:1019000002237B603B461946054802F0E5FE03468C
:10191000002B01D001F03CFF00BF1037BD4680BD59
:1019200020040020002001400100000F80B58CB091
:1019300000AF07F10C0324220021184605F08AFDB0
:101940003B1D00221A605A60224B234A1A60214B29
:1019500000225A601F4B00229A601E4B4FF6FF7206
:10196000DA601C4B00221A611A4B00225A61194B93
:1019700000229A610323FB6000233B6101237B610A
:101980000023BB610023FB6100233B6201237B62D8
:101990000023BB620023FB6207F10C0319460D48CC
:1019A00004F08AFA0346002B01D001F0F1FE002377
:1019B0007B600023BB603B1D1946064805F07AF9A1
:1019C0000346002B01D001F0E3FE00BF3037BD46D7
:1019D00080BD00BF600500200000014080B58CB0D4
:1019E00000AF07F10C0324220021184605F032FD58
:1019F0003B1D00221A605A60214B4FF080421A6052
:101A00001F4B00225A601E4B00229A601C4B4FF65F
:101A1000FF72DA601A4B00221A61194B00229A6198
:101A20000323FB6000233B6101237B610023BB6137
:101A30000023FB6100233B6201237B620023BB6226
:101A40000023FB6207F10C0319460D4804F034FA39
:101A50000346002B01D001F09BFE00237B60002396
:101A6000BB603B1D1946064805F024F90346002BD0
:101A700001D001F08DFE00BF3037BD4680BD00BFF4
:101A8000F405002080B58CB000AF07F10C032422D0
:101A90000021184605F0DEFC3B1D00221A605A604A
:101AA000204B214A1A601F4B00225A601D4B002216
:101AB0009A601C4B4FF6FF72DA601A4B00221A61D3
:101AC000184B00229A610323FB6000233B61012332
:101AD0007B610023BB610023FB6100233B62012388
:101AE0007B620023BB620023FB6207F10C031946F3
:101AF0000C4804F0E1F90346002B01D001F048FE48
:101B000000237B600023BB603B1D1946054805F0A0
:101B1000D1F80346002B01D001F03AFE00BF303768
:101B2000BD4680BDD40300200004004080B58CB0C9
:101B300000AF07F10C0324220021184605F08AFCAF
:101B40003B1D00221A605A60204B214A1A601F4B2D
:101B500000225A601D4B00229A601C4B4FF6FF7208
:101B6000DA601A4B00221A61184B00229A61032393
:101B7000FB6000233B6101237B610023BB610023E9
:101B8000FB6100233B6201237B620023BB620023D5
:101B9000FB6207F10C0319460C4804F08DF903466B
:101BA000002B01D001F0F4FD00237B600023BB601B
:101BB0003B1D1946054805F07DF80346002B01D072
:101BC00001F0E6FD00BF3037BD4680BD8802002031
:101BD0000008004080B58EB000AF07F12803002256
:101BE0001A605A609A60DA6007F1200300221A60D6
:101BF0005A603B1D00221A605A609A60DA601A61CE
:101C00005A619A612C4B2D4A1A602B4B29225A603B
:101C1000294B00229A60284B6322DA60264B00226F
:101C20001A61254B00229A61234803F0F3FE034614
:101C3000002B01D001F0ACFD4FF48053BB6207F1E3
:101C4000280319461C4804F035FC0346002B01D03C
:101C500001F09EFD184803F09DFF0346002B01D0C4
:101C600001F096FD00233B6200237B6207F1200315
:101C70001946114805F01EF80346002B01D001F06B
:101C800087FD60237B600023BB600023FB60002393
:101C90007B613B1D0C221946074804F049FB0346B3
:101CA000002B01D001F074FD034802F011F800BFD1
:101CB0003837BD4680BD00BF8C030020000C0040BB
:101CC00080B582B000AF3B4600221A605A60154BC7
:101CD000154A1A60134B42F2CF025A60114B002290
:101CE0009A60104B40F2E732DA600E4B00229A61A4
:101CF0000C4803F08FFE0346002B01D001F048FD95
:101D000000233B6000237B603B461946054804F0F6
:101D1000D1FF0346002B01D001F03AFD00BF083788
:101D2000BD4680BD180500200010004080B582B07F
:101D300000AF3B4600221A605A60154B154A1A60E4
:101D4000134B42F2CF025A60114B00229A60104BA3
:101D500042F20F72DA600E4B00229A610C4803F0D7
:101D600059FE0346002B01D001F012FD00233B6019
:101D700000237B603B461946054804F09BFF034661
:101D8000002B01D001F004FD00BF0837BD4680BD27
:101D9000E40600200014004080B58CB000AF07F1CD
:101DA0000C0324220021184605F054FB3B1D0022A1
:101DB0001A605A60224B234A1A60214B00225A6053
:101DC0001F4B00229A601E4B4FF6FF72DA601C4BCD
:101DD00000221A611A4B00225A61194B00229A61A3
:101DE0000323FB6000233B6101237B610023BB6174
:101DF0000023FB6100233B6201237B620023BB6263
:101E00000023FB6207F10C0319460D4804F054F857
:101E10000346002B01D001F0BBFC00237B600023B4
:101E2000BB603B1D1946064804F044FF0346002BE7
:101E300001D001F0ADFC00BF3037BD4680BD00BF12
:101E4000400200200004014080B58CB000AF07F1D3
:101E5000200300221A605A609A60DA603B1D00225B
:101E60001A605A609A60DA601A615A619A612A4B64
:101E70002A4A1A60284B53225A60274B00229A6044
:101E8000254B6322DA60244B00221A61224B002288
:101E90009A61214803F0BEFD0346002B01D001F0FA
:101EA00077FC4FF480533B6207F1200319461A4830
:101EB00004F000FB0346002B01D001F069FC16483A
:101EC00003F068FE0346002B01D001F061FC6023A3
:101ED0007B600023BB600023FB6000237B613B1D14
:101EE000002219460C4804F023FA0346002B01D0C7
:101EF00001F04EFC3B1D04221946074804F018FA75
:101F00000346002B01D001F043FC034801F0E0FE42
:101F100000BF3037BD4680BDA8050020004001400D
:101F200080B588B000AF3B1D00221A605A609A60ED
:101F3000DA601A615A619A611D4B1E4A1A601C4B85
:101F400053225A601A4B00229A60194B6322DA60BE
:101F5000174B00221A61164B00229A61144803F0B5
:101F600059FD0346002B01D001F012FC104803F08C
:101F700011FE0346002B01D001F00AFC60237B60B8
:101F80000023BB600023FB6000237B613B1D00221C
:101F90001946074804F0CCF90346002B01D001F0A4
:101FA000F7FB034801F094FE00BF2037BD4680BD1B
:101FB0001C0300200044014080B588B000AF3B1DE9
:101FC00000221A605A609A60DA601A615A619A6156
:101FD0001D4B1E4A1A601C4B53225A601A4B00229A
:101FE0009A60194B6322DA60174B00221A61164B74
:101FF00000229A61144803F00DFD0346002B01D026
:1020000001F0C6FB104803F0C5FD0346002B01D0CC
:1020100001F0BEFB60237B600023BB600023FB60FC
:1020200000237B613B1D00221946074804F080F91C
:102030000346002B01D001F0ABFB034801F048FE42
:1020400000BF2037BD4680BDB404002000480140D9
:1020500080B58CB000AF07F1200300221A605A60EF
:102060009A60DA603B1D00221A605A609A60DA605A
:102070001A615A619A61254B254A1A60234B29221D
:102080005A60224B00229A60204B6322DA601F4B79
:1020900000221A611D4B00229A611C4803F0BAFC11
:1020A0000346002B01D001F073FB4FF480533B62D9
:1020B00007F120031946154804F0FCF90346002BEC
:1020C00001D001F065FB114803F064FD0346002BCD
:1020D00001D001F05DFB60237B600023BB60002327
:1020E000FB6000237B613B1D04221946074804F076
:1020F0001FF90346002B01D001F04AFB034801F011
:10210000E7FD00BF3037BD4680BD00BF9806002008
:102110000018004080B588B000AF3B1D00221A6057
:102120005A609A60DA601A615A619A611D4B1E4AC0
:102130001A601C4B29225A601A4B00229A60194BD4
:102140006322DA60174B00221A61164B00229A6153
:10215000144803F05FFC0346002B01D001F018FB8C
:10216000104803F017FD0346002B01D001F010FBCF
:1021700060237B600023BB600023FB6000237B6146
:102180003B1D00221946074804F0D2F80346002BF5
:1021900001D001F0FDFA034801F09AFD00BF20379D
:1021A000BD4680BD6C040020001C004080B588B096
:1021B00000AF3B1D00221A605A609A60DA601A6113
:1021C0005A619A611E4B1F4A1A601D4B40F2FF4232
:1021D0005A601B4B00229A60194B6322DA60184B3D
:1021E00000221A61164B00229A61154803F012FC76
:1021F0000346002B01D001F0CBFA114803F0CAFCD2
:102200000346002B01D001F0C3FA60237B60142346
:10221000BB600023FB6000237B613B1D002219464D
:10222000074804F085F80346002B01D001F0B0FA0E
:10223000034801F04DFD00BF2037BD4680BD00BF03
:102240003C0600200020004080B500AF114B124A30
:102250001A60104B4FF4E1325A600E4B00229A6024
:102260000C4B0022DA600B4B00221A61094B0C2246
:102270005A61084B00229A61064B0022DA61054838
:1022800004F0A8FD0346002B01D001F081FA00BF45
:1022900080BD00BFD40200200048004080B58EB051
:1022A00000AF07F1240300221A605A609A60DA60D6
:1022B0001A6100233B62974B1B6B964A43F0100355
:1022C0001363944B1B6B03F010033B623B6A0023C8
:1022D000FB61904B1B6B8F4A43F0200313638D4BC4
:1022E0001B6B03F02003FB61FB690023BB61894B7F
:1022F0001B6B884A43F080031363864B1B6B03F010
:102300008003BB61BB6900237B61824B1B6B814AED
:1023100043F0040313637F4B1B6B03F004037B61E7
:102320007B6900233B617B4B1B6B7A4A43F00103C3
:102330001363784B1B6B03F001033B613B69002384
:10234000FB60744B1B6B734A43F040031363714B88
:102350001B6B03F04003FB60FB680023BB606D4B0D
:102360001B6B6C4A43F0020313636A4B1B6B03F055
:102370000203BB60BB6800237B60664B1B6B654A36
:1023800043F008031363634B1B6B03F008037B608C
:102390007B68002248F21C015F4802F0ADFE00227B
:1023A00003215E4802F0A8FE002240F201715C4861
:1023B00002F0A2FE00220B215A4802F09DFE0022EC
:1023C0004FF46861584802F097FE01224FF44051E3
:1023D000554802F091FE01224CF28401534802F06C
:1023E0008BFE012204214F4802F086FE00222321A9
:1023F0004E4802F081FE48F21C037B620123BB625F
:102400000023FB6203233B6307F124031946424880
:1024100002F0AEFC03237B620123BB620023FB625C
:1024200003233B6307F1240319463C4802F0A0FC58
:1024300041F204237B620023BB620023FB6207F1AD
:1024400024031946354802F093FC40F201737B6285
:102450000123BB620023FB6203233B6307F12403D8
:1024600019462F4802F084FC41F608037B620023E2
:10247000BB620023FB6207F124031946284802F0DF
:1024800077FC0F237B620123BB620023FB620323E3
:102490003B6307F124031946224802F069FC4FF41C
:1024A00080537B620023BB620023FB6207F124039D
:1024B0001946194802F05CFC4FF47A537B62012301
:1024C000BB620023FB6203233B6307F1240319462D
:1024D000154802F04DFC4CF2A7037B620123BB625E
:1024E0000023FB6203233B6307F1240319460F48D3
:1024F00002F03EFC48237B620023BB620023FB62A8
:1025000007F124031946094802F032FC00BF3837AE
:10251000BD4680BD00380240001002400014024059
:10252000000802400018024000040240000C024073
:1025300080B582B000AF78607B681B68A64A934282
:102540003AD1A64B1B8801339AB2A44B1A80A44BF4
:102550001B78002B29D0A34B1B8801339AB2A14BC7
:102560001A80A14B1B78002B04D1A04B1A78A04BEA
:102570001A7006E09C4B1B78012B02D19C4B102259
:102580001A709B4B1B789AB2964B1B889A4213D8B1
:1025900001228021974802F0AFFD0021964803F008
:1025A0001BFC8F4B00221A7006E08E4B00221A8013
:1025B000914B1B6800225A627B681B688F4A9342CA
:1025C00040F02B848E4B1B68002B3CDA8C4B1B6835
:1025D0005B421846FDF7B6FF4FF00002894BFEF74D
:1025E00045F902460B46104619464FF00002864B4D
:1025F000FEF712F802460B4610461946FEF7E4FABB
:1026000003469AB2814B1A807D4B1B685B42184689
:10261000FDF798FF4FF000027A4BFEF727F90246CC
:102620000B46104619464FF00002794BFDF7F4FFB8
:1026300002460B4610461946FEF7C6FA03469AB202
:10264000744B1A8039E06E4B1B681846FDF77AFF11
:102650004FF000026B4BFEF709F902460B4610469D
:1026600019464FF00002684BFDF7D6FF02460B46B5
:1026700010461946FEF7A8FA03469AB2634B1A8031
:102680005F4B1B681846FDF75DFF4FF000025D4B86
:10269000FEF7ECF802460B46104619464FF00002D2
:1026A0005B4BFDF7B9FF02460B4610461946FEF795
:1026B0008BFA03469AB2574B1A80574B1B68002B74
:1026C0003CDA554B1B685B421846FDF73BFF4FF069
:1026D00000024C4BFEF7CAF802460B46104619465C
:1026E0004FF00002484BFDF797FF02460B4610469D
:1026F0001946FEF769FA03469AB2484B1A80464BD0
:102700001B685B421846FDF71DFF4FF000023D4B72
:10271000FEF7ACF802460B46104619464FF0000291
:102720003B4BFDF779FF02460B4610461946FEF774
:102730004BFA03469AB23A4B1A8039E0364B1B6883
:102740001846FDF7FFFE4FF000022E4BFEF78EF805
:1027500002460B46104619464FF000022A4BFDF781
:102760005BFF02460B4610461946FEF72DFA03465C
:102770009AB22A4B1A80284B1B681846FDF7E2FED6
:102780004FF000021F4BFEF771F802460B46104651
:1027900019464FF000021E4BFDF73EFF02460B4666
:1027A00010461946FEF710FA03469AB21C4B1A80DF
:1027B000164B1A88194B1B889A4233D3134B1B882C
:1027C0001A46164B1B880A339A4237DC0F4B1A887D
:1027D000124B1A8032E000BF001400402402002097
:1027E0002802002026020020090000200B00002003
:1027F00029020020000C02403C060020001000408E
:10280000080200200000594000003E40D002002095
:1028100000003440180300200C0200202C07002088
:10282000E20600202D4B1B881A462D4B1B880A33CD
:102830009A4203DC294B1A88294B1A80294B1A88A3
:10284000294B1B889A420CD3264B1B881A46264BD1
:102850001B8807339A4210DC224B1A88224B1A80BD
:102860000BE0214B1B881A461E4B1B8807339A42EC
:1028700003DC1D4B1A881B4B1A80194B1B88002B3D
:1028800002D1174B01221A80144B1B88002B02D156
:10289000124B01221A80134B1B88002B02D1114BC3
:1028A00001221A80104B1B88002B02D10E4B0122F3
:1028B0001A800E4B1B88032B21D10D4B1B68002B5C
:1028C00003D00C4B1B68002B19D1094B1B68002B44
:1028D00012D1054B05221A8011E000BF2C07002001
:1028E000D002002018030020E20600202002002071
:1028F0001002002014020020924B05221A80924BF5
:102900001B88012B71D1914B1A68914B1B689A421D
:102910000ADA8F4B1B688F4A128893FBF2F28B4BBB
:102920001B681344894A1360884B1A68884B1B68DC
:102930009A4221DD864B1B68002B12DA854B1B88DF
:102940001846FDF7FFFD02460B46FDF7AFFC0246B9
:102950000B4610461946FEF737F903469AB27D4BEF
:102960001A807A4B1A687A4B1B687A49098893FB5C
:10297000F1F3D31A754A1360774B1A68774B1B68CB
:102980009A420ADA754B1B68754A128893FBF2F279
:10299000714B1B681344704A13606F4B1A686F4B7E
:1029A0001B689A4221DD6D4B1B68002B12DA6C4BC1
:1029B0001B881846FDF7C6FD02460B46FDF776FC60
:1029C00002460B4610461946FEF7FEF803469AB239
:1029D000634B1A80604B1A68604B1B68604909881A
:1029E00093FBF1F3D31A5C4A1360574B1B88022BFD
:1029F00071D1564B1A68564B1B689A420ADA534BF0
:102A00001A68534B1B685349098893FBF1F3D31A97
:102A10004E4A13604D4B1A684D4B1B689A4221DD9C
:102A20004B4B1B68002B12DD4A4B1B881846FDF7E9
:102A300089FD02460B46FDF739FC02460B4610465F
:102A40001946FEF7C1F803469AB2424B1A80404B32
:102A50001B68404A128893FBF2F23C4B1B681344FC
:102A60003A4A13603C4B1A683C4B1B689A420ADA9C
:102A7000394B1A68394B1B683949098893FBF1F3C4
:102A8000D31A354A1360344B1A68344B1B689A4288
:102A900021DD324B1B68002B12DD314B1B881846A1
:102AA000FDF750FD02460B46FDF700FC02460B46C3
:102AB00010461946FEF788F803469AB2284B1A804A
:102AC000264B1B68264A128893FBF2F2224B1B68A6
:102AD0001344214A13601C4B1B88032B40F0CB800E
:102AE0001B4B1B68002B3DDB184B1B68002B13DBBB
:102AF000164B1B680A2B0BDD144B1A68144B1B6812
:102B00001049098893FBF1F3D31A104A136055E07A
:102B10000E4B00221A6051E00C4B1B6813F10A0F98
:102B20000BDA0B4B1B68074A128893FBF2F2074B38
:102B30001B681344054A136040E0044B00221A60EE
:102B40003CE000BF180300202002002010020020FB
:102B500008020020D0020020140200200C020020F5
:102B60002C070020934B1B68002B13DB914B1B6839
:102B70000A2B0BDD904B1B68904A128893FBF2F2F4
:102B80008C4B1B6813448B4A136017E0894B00225F
:102B90001A6013E0874B1B6813F10A0F0BDA854BA1
:102BA0001A68854B1B688549098893FBF1F3D31A92
:102BB000804A136002E07F4B00221A60804B1B6842
:102BC000002B2CDB7F4B1B68002B13DB7D4B1B6822
:102BD0000A2B0BDD7B4B1A68794B1B687A490988F5
:102BE00093FBF1F3D31A774A136044E0754B00224C
:102BF0001A6040E0734B1B6813F10A0F0BDA704B3D
:102C00001B68714A128893FBF2F26E4B1B681344E7
:102C10006C4A13602FE06B4B00221A602BE0694B6B
:102C20001B68002B13DB674B1B680A2B0BDD644B07
:102C30001B68654A128893FBF2F2624B1B681344CF
:102C4000604A136017E05F4B00221A6013E05D4B8F
:102C50001B6813F10A0F0BDA5A4B1A68584B1B68A2
:102C60005949098893FBF1F3D31A564A136002E0DD
:102C7000544B00221A60554BD3E900014FF000027B
:102C8000534BFDF731FF0346002B03D0514B32224B
:102C90001A8012E04D4BD3E900014FF000024FF0D3
:102CA0008043FDF721FF0346002B03D0494B502200
:102CB0001A8002E0474B6E221A80464B1B881A4648
:102CC000404B1B689A4214DB424B1B881A46394B17
:102CD0001B689A420DDB3F4B1B885A42354B1B68E1
:102CE0009A4206DC3B4B1B885A42364B1B689A4281
:102CF00009DD344B00221A602E4B00221A60364B3D
:102D000003221A8089E02F4B1B68002B0FD1294B1F
:102D10001B68002B0BD100220821304802F0ECF98F
:102D200000224FF480712E4802F0E6F90AE00122F9
:102D300008212A4802F0E0F901224FF48071284866
:102D400002F0DAF91B4B1B68002B0BDA012204217D
:102D5000224802F0D1F9174B1B685A42214B1B68DD
:102D60009A6316E0134B1B68002B08D11D4B1B68A0
:102D700000229A631B4B1B6801225A6209E0002261
:102D80000421164802F0B8F90A4B1A68154B1B6863
:102D90009A630C4B1B68002B28DA012210210F4884
:102DA00002F0AAF9074B1B685A420F4B1B685A6383
:102DB00033E000BF100200200802002018030020AA
:102DC0000C02002014020020E20600200000002077
:102DD0000000F03F2A0200202002002000100240E4
:102DE0000008024098060020B40400200D4B1B6828
:102DF000002B08D10C4B1B6800225A630A4B1B683E
:102E000001225A6209E000221021084802F074F9F8
:102E1000044B1A68044B1B685A6300BF0837BD4651
:102E200080BD00BF14020020B40400200010024046
:102E300080B582B000AF0346FB71FB79013B082BE4
:102E40004CD801A252F823F0A12E0008AD2E0008A4
:102E5000B92E0008C52E0008D12E0008DD2E00086E
:102E6000DD2E0008DD2E00086D2E00080122012154
:102E70001C4802F041F9012202211A4802F03CF9F3
:102E800001220121184802F037F9012201211748D7
:102E900002F032F901220221144802F02DF91DE05E
:102EA000012201210F4802F027F917E00122022137
:102EB0000C4802F021F911E0012201210A4802F038
:102EC0001BF90BE001220121084802F015F905E089
:102ED00001220221054802F00FF900BF00BF0837A8
:102EE000BD4680BD000C02400018024000140240A4
:102EF00080B582B000AF0346FB71FB79013B082B24
:102F00004CD801A252F823F0612F00086D2F000861
:102F1000792F0008852F0008912F00089D2F0008A9
:102F20009D2F00089D2F00082D2F00080022012151
:102F30001C4802F0E1F8002202211A4802F0DCF8F5
:102F400000220121184802F0D7F800220121174879
:102F500002F0D2F800220221144802F0CDF81DE060
:102F6000002201210F4802F0C7F817E000220221D9
:102F70000C4802F0C1F811E0002201210A4802F0D9
:102F8000BBF80BE000220121084802F0B5F805E08B
:102F900000220221054802F0AFF800BF00BF083749
:102FA000BD4680BD000C02400018024000140240E3
:102FB00080B500AF01220421044802F09DF80022F0
:102FC0000421034802F098F800BF80BD000C0240C5
:102FD0000018024080B500AF00220421044802F02E
:102FE0008BF801220421034802F086F800BF80BD5F
:102FF000000C02400018024080B500AF134B1B7854
:10300000012B21D04FF48051114802F05DF80346A6
:10301000002B01D100F026F840F6AC5001F08AF9FF
:1030200000210C4802F010FE002208210A4802F09C
:1030300063F800228021094802F05EF8034B012268
:103040001A70074B01221A7000BF80BD09000020D2
:10305000001002403C06002000180240000C024014
:103060002802002080B500AF1E4B1B78002B36D005
:103070001D4B01221A7000211C4802F0E5FD0122BF
:1030800008211B4802F038F800228021194802F07C
:1030900033F8144B00221A70174B01221A701AE0F1
:1030A0004FF48051154802F00FF80346002B03D16E
:1030B000322001F03FF907E0114B1B789AB2114B17
:1030C0001A80094B00221A700B4B1B78002B02D17F
:1030D000054B00221A70044B1B78002BE0D100BF77
:1030E00080BD00BF09000020F10500203C06002043
:1030F00000180240000C024028020020001002408C
:103100000B0000202602002080B582B000AF0346ED
:10311000FB71FB79013B082B42D801A252F823F046
:10312000453100084F31000859310008633100086B
:103130006D310008A1310008A1310008A13100085B
:10314000773100080C21184802F07EFD28E00021AC
:10315000164802F079FD23E00421144802F074FDC2
:103160001EE00021124802F06FFD19E00021114815
:1031700002F06AFD14E00C210B4802F065FD00210D
:103180000A4802F061FD0421084802F05DFD0021BB
:10319000074802F059FD0021064802F055FD00BF26
:1031A00000BF0837BD4680BD8C030020A805002065
:1031B0001C0300206C04002080B582B000AF0346E1
:1031C000FB71FB79013B082B42D801A252F823F096
:1031D000F5310008FF3100080932000813320008F9
:1031E0001D320008513200085132000851320008E7
:1031F000273200080C21184802F0EEFD28E00021DB
:10320000164802F0E9FD23E00421144802F0E4FD31
:103210001EE00021124802F0DFFD19E000211148F4
:1032200002F0DAFD14E00C210B4802F0D5FD00217C
:103230000A4802F0D1FD0421084802F0CDFD00212A
:10324000074802F0C9FD0021064802F0C5FD00BF95
:1032500000BF0837BD4680BD8C030020A8050020B4
:103260001C0300206C04002090B482B000AF044620
:10327000084611461A462346FB710346BB710B46AE
:103280007B7113463B71FB79002B04D0214B1B68EB
:10329000FA791A6404E0204B1A781E4B1B681A64F2
:1032A000BB79002B04D01D4B1B68BA795A6304E02C
:1032B000194B1A78194B1B685A637B79002B04D081
:1032C000164B1B687A799A6304E0134B1A78134BF8
:1032D0001B689A633B79002B04D0114B1B683A7929
:1032E0005A6304E00C4B1A780D4B1B685A633B7C05
:1032F000002B04D00B4B1B683A7C5A6304E0064B4E
:103300001A78084B1B685A6300BF0837BD4690BC4B
:10331000704700BF8C03002008000020A805002093
:103320001C0300206C040020B0B586B000AF87ED10
:10333000030AC7ED020A87ED011AD7ED027AB7EE4C
:10334000007AF4EE477AF1EE10FA48D1F868FDF70A
:103350000BF94FF00002414BFDF788FA02460B468D
:1033600014461D463E4B1B781846FDF7EBF8024607
:103370000B464FF000003B49FDF778FA02460B463A
:1033800020462946FDF748F902460B4614461D46DD
:103390007868FDF7E9F84FF00002334BFDF766FA65
:1033A00002460B464FF000002E49FDF75FFA024639
:1033B0000B4620462946FDF72FF902460B461046DC
:1033C00019464FF00002294BFDF726F902460B463D
:1033D00010461946FDF718FC03467B6131E0F8689A
:1033E000FDF7C2F84FF000021C4BFDF73FFA024612
:1033F0000B4614461D467868FDF7B6F84FF00002FC
:10340000194BFDF733FA02460B464FF00000154901
:10341000FDF72CFA02460B4620462946FDF7FCF83C
:1034200002460B46104619464FF000020F4BFDF7BF
:10343000F3F802460B4610461946FDF7E5FB034636
:103440007B61D7ED057AFCEEE77A17EE900A00F083
:1034500071FF00BF1837BD46B0BD00BF000024405B
:103460002C0200200000F03F0000594000408F4037
:1034700080B582B002AF6423009364236422642188
:103480006420FFF7F1FE0920FFF7D2FC0920FFF7C7
:103490003BFE9FED2F1ADFED2F0A9FED2F0AFFF75E
:1034A00043FF0920FFF788FE4B2300934B2349225B
:1034B0004B214B20FFF7D8FE0920FFF719FD012013
:1034C000FFF722FE9FED221ADFED220AB0EE080A76
:1034D000FFF72AFF0220FFF717FE9FED1D1ADFED11
:1034E0001D0AB2EE080AFFF71FFF0420FFF70CFECB
:1034F0009FED171ADFED170AB1EE0C0AFFF714FF64
:103500000320FFF701FE9FED121ADFED120A9FED77
:10351000110AFFF709FF0520FFF7F6FD9FED0C1AD2
:10352000DFED0C0A9FED0D0AFFF7FEFE0320FFF70B
:1035300043FE0420FFF740FE0520FFF73DFE02207A
:10354000FFF73AFE0120FFF737FE00BFBD4680BD02
:1035500000009642000000000000434300002042AB
:1035600080B584B002AF0346FB71FB79022B02D019
:10357000032B4CD09DE04B2300934B2349224B213E
:103580004B20FFF771FE0920FFF7B2FC0920FFF77F
:10359000BBFD0120FFF74CFC9FED481ADFED480A08
:1035A0009FED480AFFF7C0FE0120FFF7A1FC9FED49
:1035B000431ADFED430A9FED440AFFF7B5FE0120F1
:1035C000FFF7FAFD9FED3D1ADFED3D0AB0EE080A68
:1035D000FFF7AAFE0320FFF7EFFD0420FFF7ECFD45
:1035E0009FED361ADFED360AB2EE040AFFF79CFEB5
:1035F0000220FFF7E1FD9FED311ADFED310AB2EE57
:10360000040AFFF791FE0520FFF7D6FD51E04B239A
:1036100000934B2349224B214B20FFF725FE092025
:10362000FFF706FC0520FFF76FFD9FED241ADFED85
:10363000240AB2EE040AFFF777FE0220FFF764FDCA
:103640009FED1E1ADFED1E0AB2EE040AFFF76CFEB4
:103650000120FFF74DFC0920FFF756FD9FED171ADB
:10366000DFED170A9FED170AFFF75EFE0120FFF757
:10367000DFFB9FED121ADFED120A9FED130AFFF731
:1036800053FE0120FFF798FD9FED0C1ADFED0C0AA9
:10369000B0EE080AFFF748FE0220FFF78DFD032079
:1036A000FFF78AFD0420FFF787FD0520FFF784FD63
:1036B00000BF00BF0837BD4680BD00BF0000964276
:1036C000000000000000784200005C4280B500AFBE
:1036D000104B1B78002B1AD000224FF480410E486B
:1036E00001F00AFD00224FF480510C4801F004FD66
:1036F00001224FF40041084801F0FEFC01224FF482
:103700000051064801F0F8FC024B00221A7000BF7D
:1037100080BD00BF0A000020000C024000040240EF
:1037200080B500AF174B1B78012B29D001224FF435
:103730008041154801F0E0FC01224FF4805113480C
:1037400001F0DAFC00224FF400410F4801F0D4FCF4
:1037500000224FF400510D4801F0CEFCFA2000F099
:10376000E9FD01224FF40041074801F0C5FC0122A8
:103770004FF40051054801F0BFFC024B01221A70C2
:1037800000BF80BD0A000020000C0240000402407F
:1037900080B400AF72B600BFFEE7000080B483B013
:1037A00000AF00237B60104B5B6C0F4A43F48043F7
:1037B00053640D4B5B6C03F480437B607B68002398
:1037C0003B60094B1B6C084A43F080531364064B63
:1037D0001B6C03F080533B603B6800BF0C37BD4659
:1037E0005DF8047B704700BF0038024080B58AB0A6
:1037F00000AF786007F1140300221A605A609A60E3
:10380000DA601A617B681B68174A934227D100234C
:103810003B61164B5B6C154A43F480735364134B46
:103820005B6C03F480733B613B690023FB600F4BCF
:103830001B6B0E4A43F0010313630C4B1B6B03F02D
:103840000103FB60FB6860237B610323BB610023F2
:10385000FB6107F114031946054801F089FA00BF1E
:103860002837BD4680BD00BF00200140003802401F
:103870000000024080B592B000AF786007F13403D9
:1038800000221A605A609A60DA601A617B681B68CD
:10389000914A93422DD100233B63904B5B6C8F4A3E
:1038A00043F0010353648D4B5B6C03F001033B63F6
:1038B0003B6B0023FB62894B1B6B884A43F0100370
:1038C0001363864B1B6B03F01003FB62FB6A4FF420
:1038D00020637B630223BB630023FB6303233B64FE
:1038E00001237B6407F1340319467D4801F040FA57
:1038F000EEE07B681B68B3F1804F4BD10023BB62C5
:10390000764B1B6C754A43F001031364734B1B6CBD
:1039100003F00103BB62BB6A00237B626F4B1B6B2E
:103920006E4A43F0010313636C4B1B6B03F00103FE
:103930007B627B6A00233B62684B1B6B674A43F0E8
:1039400002031363654B1B6B03F002033B623B6A8C
:103950004FF400437B630223BB630023FB63032319
:103960003B6401237B6407F1340319465D4801F091
:10397000FFF908237B630223BB630023FB6303235C
:103980003B6401237B6407F134031946564801F078
:10399000EFF99DE07B681B68544A93422CD10023C9
:1039A000FB614E4B1B6C4D4A43F0020313644B4BBF
:1039B0001B6C03F00203FB61FB690023BB61474BF7
:1039C0001B6B464A43F002031363444B1B6B03F02B
:1039D0000203BB61BB6930237B630223BB6300230B
:1039E000FB6303233B6402237B6407F13403194622
:1039F0003D4801F0BDF96BE07B681B683C4A93428F
:103A00002DD100237B61354B1B6C344A43F00403FA
:103A10001364324B1B6C03F004037B617B6900234E
:103A20003B612E4B1B6B2D4A43F0080313632B4B5A
:103A30001B6B03F008033B613B694FF440537B630E
:103A40000223BB630023FB6303233B6402237B64E9
:103A500007F134031946274801F08AF938E07B68FA
:103A60001B68254A934233D10023FB601B4B5B6CE0
:103A70001A4A43F002035364184B5B6C03F00203D1
:103A8000FB60FB680023BB60144B1B6B134A43F0C5
:103A900004031363114B1B6B03F00403BB60BB688F
:103AA000C0237B630223BB630023FB6303233B64CC
:103AB00003237B6407F134031946104801F058F9D9
:103AC000002200212D2001F01CF92D2001F035F9F4
:103AD00000BF4837BD4680BD0000014000380240AD
:103AE00000100240000002400004024000040040B8
:103AF00000080040000C02400004014000080240A1
:103B000080B58CB000AF78607B681B68664A9342D2
:103B10000ED10023FB62654B1B6C644A43F0080323
:103B20001364624B1B6C03F00803FB62FB6AB6E094
:103B30007B681B685E4A934216D10023BB625B4BD5
:103B40001B6C5A4A43F010031364584B1B6C03F070
:103B50001003BB62BB6A00220021362001F0D1F8BD
:103B6000362001F0EAF89AE07B681B68514A9342DC
:103B700016D100237B624D4B1B6C4C4A43F0200353
:103B800013644A4B1B6C03F020037B627B6A0022A8
:103B90000021372001F0B5F8372001F0CEF87EE0A3
:103BA0007B681B68444A93420ED100233B623F4B23
:103BB0005B6C3E4A43F4803353643C4B5B6C03F4D0
:103BC00080333B623B6A6AE07B681B683B4A9342F6
:103BD0000ED10023FB61354B5B6C344A43F4003358
:103BE0005364324B5B6C03F40033FB61FB6956E0BA
:103BF0007B681B68324A93420ED10023BB612B4B7A
:103C00005B6C2A4A43F480235364284B5B6C03F4B7
:103C10008023BB61BB6942E07B681B68294A9342F1
:103C20000ED100237B61214B1B6C204A43F04003E3
:103C300013641E4B1B6C03F040037B617B692EE019
:103C40007B681B68204A93420ED100233B61174BCF
:103C50001B6C164A43F080031364144B1B6C03F077
:103C600080033B613B691AE07B681B68174A9342FB
:103C700015D10023FB600D4B1B6C0C4A43F4807381
:103C800013640A4B1B6C03F48073FB60FB68002217
:103C900000212D2001F035F82D2001F04EF800BF55
:103CA0003037BD4680BD00BF000C004000380240E8
:103CB000001000400014004000400140004401405A
:103CC0000048014000180040001C00400020004057
:103CD00080B58EB000AF786007F1240300221A602F
:103CE0005A609A60DA601A617B681B687F4A934267
:103CF0001ED100233B627E4B1B6B7D4A43F00103C8
:103D000013637B4B1B6B03F001033B623B6A08238D
:103D10007B620223BB620023FB6203233B6302231B
:103D20007B6307F124031946724801F021F8D9E0BA
:103D30007B681B68704A93421ED10023FB616C4B69
:103D40001B6B6B4A43F010031363694B1B6B03F04F
:103D50001003FB61FB6960237B620223BB620023CB
:103D6000FB6203233B6303237B6307F124031946B0
:103D7000624800F0FDFFB5E07B681B68604A934233
:103D80001FD10023BB615A4B1B6B594A43F00203FE
:103D90001363574B1B6B03F00203BB61BB694FF40A
:103DA00080737B620223BB620023FB6203233B63BD
:103DB00003237B6307F124031946524800F0D8FF20
:103DC00090E07B681B68504A93421ED100237B61C0
:103DD000474B1B6B464A43F020031363444B1B6B5A
:103DE00003F020037B617B6980237B620223BB623B
:103DF0000023FB6203233B6303237B6307F124035C
:103E00001946424800F0B4FF6CE07B681B68404AEA
:103E100093421FD100233B61354B1B6B344A43F067
:103E200002031363324B1B6B03F002033B613B69DC
:103E30004FF400437B620223BB620023FB62032337
:103E40003B6309237B6307F1240319462D4800F0E7
:103E50008FFF47E07B681B682E4A93421FD10023E7
:103E6000FB60234B1B6B224A43F020031363204B60
:103E70001B6B03F02003FB60FB684FF480737B62D5
:103E80000223BB620023FB6203233B6309237B63A2
:103E900007F1240319461D4800F06AFF22E07B6801
:103EA0001B681D4A93421DD10023BB60104B1B6B46
:103EB0000F4A43F0010313630D4B1B6B03F0010327
:103EC000BB60BB6880237B620223BB620023FB6272
:103ED00003233B6309237B6307F124031946054849
:103EE00000F046FF00BF3837BD4680BD000C0040E3
:103EF0000038024000000240004001400010024033
:103F00000044014000040240004801400014024007
:103F100000180040001C00400020004080B58AB01E
:103F200000AF786007F1140300221A605A609A60AB
:103F3000DA601A617B681B68194A93422CD100230E
:103F40003B61184B1B6C174A43F480231364154BD9
:103F50001B6C03F480233B613B690023FB60114B26
:103F60001B6B104A43F0080313630E4B1B6B03F0EB
:103F70000803FB60FB684FF440737B610223BB6165
:103F80000023FB6103233B6207237B6207F11403D9
:103F90001946054800F0ECFE00BF2837BD4680BD3D
:103FA0000048004000380240000C024080B400AFDE
:103FB000FEE780B483B000AF0123FB71FEE780B45D
:103FC00000AFFEE780B400AFFEE780B400AFFEE7CD
:103FD00080B400AF00BFBD465DF8047B704780B47D
:103FE00000AF00BFBD465DF8047B704780B400AFF2
:103FF00000BFBD465DF8047B704780B500AF00F0A0
:1040000079F900BF80BD000080B500AF034802F021
:1040100087F8034802F084F800BF80BD400200200A
:104020003C06002080B500AF024802F079F800BFDE
:1040300080BD00BF1805002080B500AF024802F027
:104040006FF800BF80BD00BFE406002080B400AF61
:1040500001231846BD465DF8047B704780B582B0E9
:1040600000AF7860396003F0CBF9034616221A607E
:104070004FF0FF3318460837BD4680BD80B582B08B
:1040800000AF78604FF0FF317868FFF7E7FFFEE799
:1040900080B586B000AFF860B9607A6000237B61BC
:1040A0000AE0AFF300800146BB685A1CBA60CAB28E
:1040B0001A707B6901337B617A697B689A42F0DB15
:1040C0007B6818461837BD4680BD80B586B000AF06
:1040D000F860B9607A6000237B6109E0BB685A1C14
:1040E000BA601B781846FCF791FF7B6901337B614E
:1040F0007A697B689A42F1DB7B6818461837BD46BF
:1041000080BD80B483B000AF78604FF0FF331846B5
:104110000C37BD465DF8047B704780B483B000AFB8
:10412000786039603B684FF400525A6000231846AB
:104130000C37BD465DF8047B704780B483B000AF98
:104140007860012318460C37BD465DF8047B704744
:1041500080B485B000AFF860B9607A60002318467B
:104160001437BD465DF8047B7047000080B586B00B
:1041700000AF7860144A154BD31A7B617B693B61B1
:10418000134B1B68002B02D1114B124A1A60104BC3
:104190001A687B6813443A699A4207D203F030F9EF
:1041A00003460C221A604FF0FF3309E0084B1B68EE
:1041B000FB60074B1A687B681344054A1360FB6871
:1041C00018461837BD4680BD0000032000040000DB
:1041D000300200209807002080B400AF064BD3F8CF
:1041E0008830054A43F47003C2F8883000BFBD46EA
:1041F0005DF8047B704700BF00ED00E0DFF834D0CD
:104200000D480E490E4A002302E0D458C45004332E
:10421000C4188C42F9D30B4A0B4C002301E0136005
:104220000432A242FBD3FFF7D7FF03F0EFF8FCF70D
:10423000FFFE70470000032000000020EC0100207A
:10424000ACC10008EC01002098070020FEE7000048
:1042500080B500AF0E4B1B680D4A43F4007313602A
:104260000B4B1B680A4A43F480631360084B1B68BE
:10427000074A43F480731360032000F037FD0F20DA
:1042800000F008F8FFF78AFA0023184680BD00BF47
:10429000003C024080B582B000AF7860124B1A68D3
:1042A000124B1B7819464FF47A73B3FBF1F3B2FB50
:1042B000F3F3184600F04FFD0346002B01D0012315
:1042C0000EE07B680F2B0AD8002279684FF0FF3090
:1042D00000F017FD064A7B681360002300E001230D
:1042E00018460837BD4680BD0C0000201400002091
:1042F0001000002080B400AF064B1B781A46064B16
:104300001B681344044A136000BFBD465DF8047B7C
:10431000704700BF140000208407002080B400AF65
:10432000034B1B681846BD465DF8047B704700BF11
:104330008407002080B584B000AF7860FFF7EEFFFF
:10434000B8607B68FB60FB68B3F1FF3F05D00A4BA8
:104350001B781A46FB681344FB6000BFFFF7DEFFC3
:104360000246BB68D31AFA689A42F7D800BF00BF6A
:104370001037BD4680BD00BF1400002080B584B05A
:1043800000AF78600023FB737B68002B01D1012311
:1043900033E07B681B6C002B09D17868FFF726FAA5
:1043A0007B6800225A647B68002283F83C207B688B
:1043B0001B6C03F01003002B18D17B681B6C23F4DB
:1043C000885323F0020343F002027B681A64786882
:1043D00000F0C0FA7B6800225A647B681B6C23F0F3
:1043E000030343F001027B681A6401E00123FB73BD
:1043F0007B68002283F83C20FB7B18461037BD46C3
:1044000080BD000080B485B000AF78600023BB6041
:104410007B6893F83C30012B01D10223B2E07B682A
:10442000012283F83C207B681B689B6803F0010332
:10443000012B18D07B681B689A687B681B6842F068
:1044400001029A60524B1B68524AA2FB03239A0C4A
:1044500013465B001344BB6002E0BB68013BBB60DA
:10446000BB68002BF9D17B681B689B6803F00103D4
:10447000012B7AD17B681B6C23F4E06323F00103EA
:1044800043F480727B681A647B681B685B6803F482
:104490008063002B07D07B681B6C23F4405343F4EC
:1044A00080527B681A647B681B6C03F48053B3F5FD
:1044B000805F06D17B685B6C23F006027B685A64E0
:1044C00002E07B6800225A647B68002283F83C206B
:1044D000314BFB607B681B686FF022021A60FB683F
:1044E0005B6803F01F03002B2AD17B681B682B4AF3
:1044F000934215D07B681B68294A934205D1264B0D
:104500005B6803F01F03002B0AD07B681B68254AF9
:10451000934236D1204B5B6803F01003002B30D15F
:104520007B681B689B6803F04053002B29D17B6894
:104530001B689A687B681B6842F080429A6020E0A2
:104540007B681B68154A93421BD17B681B689B687C
:1045500003F04053002B14D17B681B689A687B687A
:104560001B6842F080429A600BE07B681B6C43F052
:1045700010027B681A647B685B6C43F001027B6805
:104580005A64002318461437BD465DF8047B704713
:104590000C00002083DE1B4300230140002001406B
:1045A000002101400022014080B584B000AF786056
:1045B00039600023FB607B681B689B6803F48063A1
:1045C000B3F5806F13D17B681B689B6803F480731D
:1045D000B3F5807F0BD17B681B6C43F020027B68B6
:1045E0001A647B68002283F83C20012363E0FFF714
:1045F00095FEF86021E03B68B3F1FF3F1DD03B68BA
:10460000002B07D0FFF78AFE0246FB68D31A3A68F0
:104610009A4212D27B681B681B6803F00203022BCC
:104620000BD07B681B6C43F004027B681A647B68C8
:10463000002283F83C2003233DE07B681B681B6855
:1046400003F00203022BD6D17B681B686FF01202C5
:104650001A607B681B6C43F400727B681A647B6889
:104660001B689B6803F04053002B23D17B681B7EA3
:10467000002B1FD17B681B68DB6A03F47003002BDF
:1046800006D07B681B689B6803F48063002B11D104
:104690007B681B6C23F480727B681A647B681B6CDC
:1046A00003F48053002B05D17B681B6C43F001029F
:1046B0007B681A64002318461037BD4680BD80B45D
:1046C00083B000AF78607B681B68DB6C18460C37E2
:1046D000BD465DF8047B704780B485B000AF78605C
:1046E00039600023BB607B6893F83C30012B01D11B
:1046F000022313E17B68012283F83C203B681B689E
:10470000092B25D97B681B68D9683B681B689BB25D
:104710001A4613465B0013441E3B072202FA03F3BA
:10472000DA437B681B680A40DA607B681B68D968DB
:104730003B689A683B681B689BB2184603465B005F
:1047400003441E3B9A407B681B680A43DA6022E000
:104750007B681B6819693B681B689BB21A46134645
:104760005B001344072202FA03F3DA437B681B68F9
:104770000A401A617B681B6819693B689A683B6844
:104780001B689BB2184603465B0003449A407B6853
:104790001B680A431A613B685B68062B24D87B6858
:1047A0001B68596B3B685A6813469B001344053BD2
:1047B0001F2202FA03F3DA437B681B680A405A633C
:1047C0007B681B68596B3B681B689BB218463B684B
:1047D0005A6813469B001344053B00FA03F27B68BA
:1047E0001B680A435A634CE03B685B680C2B24D877
:1047F0007B681B68196B3B685A6813469B0013441F
:10480000233B1F2202FA03F3DA437B681B680A404A
:104810001A637B681B68196B3B681B689BB2184660
:104820003B685A6813469B001344233B00FA03F28B
:104830007B681B680A431A6323E07B681B68D96A9C
:104840003B685A6813469B001344413B1F2202FAFF
:1048500003F3DA437B681B680A40DA627B681B68F3
:10486000D96A3B681B689BB218463B685A68134676
:104870009B001344413B00FA03F27B681B680A4328
:10488000DA62294BFB607B681B68284A93420FD190
:104890003B681B68122B0BD1FB685B6823F400029A
:1048A000FB685A60FB685B6843F48002FB685A60EF
:1048B0007B681B681D4A93422BD13B681B681C4ACE
:1048C000934203D03B681B68112B22D1FB685B68C5
:1048D00023F48002FB685A60FB685B6843F40002C3
:1048E000FB685A603B681B68114A934211D1114B17
:1048F0001B68114AA2FB03239A0C13469B00134426
:104900005B00BB6002E0BB68013BBB60BB68002B87
:10491000F9D17B68002283F83C2000231846143725
:10492000BD465DF8047B7047002301400020014034
:10493000120000100C00002083DE1B4380B483B003
:1049400000AF78607B681B6C18460C37BD465DF87D
:10495000047B704780B485B000AF7860794BFB6012
:10496000FB685B6823F44032FB685A60FB685A6856
:104970007B685B681A43FB685A607B681B685A68EF
:104980007B681B6822F480725A607B681B685968D8
:104990007B681B691A027B681B680A435A607B6844
:1049A0001B685A687B681B6822F040725A607B68FB
:1049B0001B6859687B689A687B681B680A435A6061
:1049C0007B681B689A687B681B6822F400629A60A7
:1049D0007B681B6899687B68DA687B681B680A4398
:1049E0009A607B689B6A584A934222D07B681B6816
:1049F0009A687B681B6822F070629A607B681B680B
:104A000099687B689A6A7B681B680A439A607B682E
:104A10001B689A687B681B6822F040529A607B682A
:104A20001B6899687B68DA6A7B681B680A439A602E
:104A30000FE07B681B689A687B681B6822F07062D5
:104A40009A607B681B689A687B681B6822F04052FA
:104A50009A607B681B689A687B681B6822F0020278
:104A60009A607B681B6899687B681B7E5A007B682C
:104A70001B680A439A607B6893F82030002B1BD098
:104A80007B681B685A687B681B6842F400625A6046
:104A90007B681B685A687B681B6822F460425A6016
:104AA0007B681B6859687B685B6A013B5A037B68BB
:104AB0001B680A435A6007E07B681B685A687B687A
:104AC0001B6822F400625A607B681B68DA6A7B68A4
:104AD0001B6822F47002DA627B681B68D96A7B6803
:104AE000DB69013B1A057B681B680A43DA627B6855
:104AF0001B689A687B681B6822F400729A607B6866
:104B00001B6899687B6893F830305A027B681B6891
:104B10000A439A607B681B689A687B681B6822F46A
:104B200080629A607B681B6899687B685B699A02FF
:104B30007B681B680A439A6000BF1437BD465DF866
:104B4000047B7047002301400100000F80B485B052
:104B500000AF78607B6803F00703FB600C4BDB68F9
:104B6000BB60BA684FF6FF031340BB60FB681A02D4
:104B7000BB68134343F0BF6343F40033BB60044A94
:104B8000BB68D36000BF1437BD465DF8047B704737
:104B900000ED00E080B400AF044BDB681B0A03F0BB
:104BA00007031846BD465DF8047B704700ED00E042
:104BB00080B483B000AF0346FB7197F90730002B38
:104BC0000BDBFB7903F01F02074997F907305B09FC
:104BD000012000FA02F241F8232000BF0C37BD4645
:104BE0005DF8047B704700BF00E100E080B483B053
:104BF00000AF03463960FB7197F90730002B0ADBE1
:104C00003B68DAB20C4997F907301201D2B20B4473
:104C100083F800230AE03B68DAB20849FB7903F025
:104C20000F03043B1201D2B20B441A7600BF0C37BB
:104C3000BD465DF8047B704700E100E000ED00E058
:104C400080B489B000AFF860B9607A60FB6803F0A7
:104C50000703FB61FB69C3F10703042B28BF04238F
:104C6000BB61FB690433062B02D9FB69033B00E0FF
:104C700000237B614FF0FF32BB6902FA03F3DA4392
:104C8000BB681A407B699A404FF0FF317B6901FA9B
:104C900003F3D9437B680B40134318462437BD46C2
:104CA0005DF8047B7047000080B582B000AF78608B
:104CB0007B68013BB3F1807F01D301230FE00A4AF7
:104CC0007B68013B53600F214FF0FF30FFF78EFFF1
:104CD000054B00229A60044B07221A6000231846F5
:104CE0000837BD4680BD00BF10E000E080B582B04F
:104CF00000AF78607868FFF729FF00BF0837BD462E
:104D000080BD80B586B000AF0346B9607A60FB73A2
:104D100000237B61FFF73EFF78617A68B9687869A4
:104D2000FFF78EFF024697F90F3011461846FFF73E
:104D30005DFF00BF1837BD4680BD80B582B000AFB3
:104D40000346FB7197F907301846FFF731FF00BFA4
:104D50000837BD4680BD80B582B000AF7860786806
:104D6000FFF7A2FF034618460837BD4680BD000086
:104D700080B489B000AF7860396000237B61002384
:104D80003B610023BB610023FB6177E10122FB69EA
:104D900002FA03F37B613B681B687A6913403B614D
:104DA0003A697B699A4240F066813B685B6803F030
:104DB0000303012B05D03B685B6803F00303022B60
:104DC00030D17B689B68BB61FB695B00032202FA00
:104DD00003F3DB43BA691340BB613B68DA68FB69E4
:104DE0005B0002FA03F3BA691343BB617B68BA69DB
:104DF0009A607B685B68BB610122FB6902FA03F37E
:104E0000DB43BA691340BB613B685B681B0903F075
:104E10000102FB6902FA03F3BA691343BB617B68C1
:104E2000BA695A603B685B6803F00303032B17D031
:104E30007B68DB68BB61FB695B00032202FA03F35A
:104E4000DB43BA691340BB613B689A68FB695B004E
:104E500002FA03F3BA691343BB617B68BA69DA608B
:104E60003B685B6803F00303022B23D1FB69DA087C
:104E70007B68083253F82230BB61FB6903F00703FB
:104E80009B000F2202FA03F3DB43BA691340BB61B4
:104E90003B681A69FB6903F007039B0002FA03F3FE
:104EA000BA691343BB61FB69DA087B680832B969E8
:104EB00043F822107B681B68BB61FB695B0003221F
:104EC00002FA03F3DB43BA691340BB613B685B68DA
:104ED00003F00302FB695B0002FA03F3BA691343B0
:104EE000BB617B68BA691A603B685B6803F4403356
:104EF000002B00F0C0800023FB60664B5B6C654AB2
:104F000043F480435364634B5B6C03F48043FB6066
:104F1000FB68614AFB699B08023352F82330BB618E
:104F2000FB6903F003039B000F2202FA03F3DB4348
:104F3000BA691340BB617B68584A934237D07B689B
:104F4000574A934231D07B68564A93422BD07B68B4
:104F5000554A934225D07B68544A93421FD07B68C0
:104F6000534A934219D07B68524A934213D07B68CC
:104F7000514A93420DD07B68504A934207D07B68D8
:104F80004F4A934201D1092312E00A2310E008237B
:104F90000EE007230CE006230AE0052308E00423C3
:104FA00006E0032304E0022302E0012300E00023E3
:104FB000FA6902F0030292009340BA691343BB619D
:104FC0003549FB699B080233BA6941F823203D4B00
:104FD0001B68BB613B69DB43BA691340BB613B683B
:104FE0005B6803F48033002B03D0BA693B69134339
:104FF000BB61344ABB691360324B5B68BB613B6980
:10500000DB43BA691340BB613B685B6803F4003360
:10501000002B03D0BA693B691343BB61294ABB69C2
:105020005360284B9B68BB613B69DB43BA69134003
:10503000BB613B685B6803F48013002B03D0BA6943
:105040003B691343BB611F4ABB6993601D4BDB681F
:10505000BB613B69DB43BA691340BB613B685B687A
:1050600003F40013002B03D0BA693B691343BB61FF
:10507000144ABB69D360FB690133FB61FB690F2BE9
:105080007FF684AE00BF00BF2437BD465DF8047BC9
:10509000704700BF00380240003801400000024065
:1050A0000004024000080240000C024000100240D0
:1050B0000014024000180240001C02400020024080
:1050C00000240240003C014080B485B000AF78600D
:1050D0000B467B807B681A697B881340002B02D0CB
:1050E0000123FB7301E00023FB73FB7B184614379D
:1050F000BD465DF8047B704780B483B000AF786034
:105100000B467B8013467B707B78002B03D07A881C
:105110007B689A6103E07B881A047B689A6100BF10
:105120000C37BD465DF8047B7047000080B586B043
:1051300000AF78607B68002B01D1012364E27B68BB
:105140001B6803F00103002B75D0A34B9B6803F091
:105150000C03042B0CD0A04B9B6803F00C03082B12
:1051600012D19D4B5B6803F48003B3F5800F0BD124
:10517000994B1B6803F40033002B5BD07B685B68A2
:10518000002B57D101233FE27B685B68B3F5803F7A
:1051900006D1914B1B68904A43F4803313601DE0A5
:1051A0007B685B68B3F5A02F0CD18B4B1B688A4AD8
:1051B00043F480231360884B1B68874A43F4803391
:1051C00013600BE0844B1B68834A23F48033136025
:1051D000814B1B68804A23F4802313607B685B68E3
:1051E000002B13D0FFF79AF8386108E0FFF796F824
:1051F00002463B69D31A642B01D9032304E2764BA0
:105200001B6803F40033002BF0D014E0FFF786F89E
:10521000386108E0FFF782F802463B69D31A642B35
:1052200001D90323F0E16C4B1B6803F40033002B1E
:10523000F0D100E000BF7B681B6803F00203002B85
:1052400063D0654B9B6803F00C03002B0BD0624BC3
:105250009B6803F00C03082B1CD15F4B5B6803F4C5
:105260008003002B16D15C4B1B6803F00203002B5C
:1052700005D07B68DB68012B01D00123C4E1564BCC
:105280001B6823F0F8027B681B69DB00524913435B
:105290000B603AE07B68DB68002B20D04F4B01228B
:1052A0001A60FFF73BF8386108E0FFF737F802466D
:1052B0003B69D31A022B01D90323A5E1464B1B6896
:1052C00003F00203002BF0D0434B1B6823F0F802DD
:1052D0007B681B69DB00404913430B6015E03F4BC3
:1052E00000221A60FFF71AF8386108E0FFF716F895
:1052F00002463B69D31A022B01D9032384E1364BC2
:105300001B6803F00203002BF0D17B681B6803F0DD
:105310000803002B30D07B685B69002B16D0304B24
:1053200001221A60FEF7FAFF386108E0FEF7F6FF87
:1053300002463B69D31A022B01D9032364E1264BB1
:105340005B6F03F00203002BF0D015E0244B00222A
:105350001A60FEF7E3FF386108E0FEF7DFFF024660
:105360003B69D31A022B01D903234DE11A4B5B6F22
:1053700003F00203002BF0D17B681B6803F00403E9
:10538000002B00F0A0800023FB75134B1B6C03F077
:105390008053002B0FD10023BB600F4B1B6C0E4AB8
:1053A00043F0805313640C4B1B6C03F08053BB60C1
:1053B000BB680123FB750B4B1B6803F48073002B48
:1053C00021D1084B1B68074A43F480731360FEF732
:1053D000A5FF386111E000BF0038024000004742DD
:1053E000800E474200700040FEF798FF02463B697E
:1053F000D31A022B01D9032306E1854B1B6803F462
:105400008073002BF0D07B689B68012B06D1814B09
:105410001B6F804A43F0010313671CE07B689B68A5
:10542000052B0CD17B4B1B6F7A4A43F004031367A7
:10543000784B1B6F774A43F0010313670BE0754B02
:105440001B6F744A23F001031367724B1B6F714A81
:1054500023F0040313677B689B68002B15D0FEF7CD
:105460005DFF38610AE0FEF759FF02463B69D31A37
:1054700041F28832934201D90323C5E0654B1B6F8B
:1054800003F00203002BEED014E0FEF747FF386173
:105490000AE0FEF743FF02463B69D31A41F2883225
:1054A000934201D90323AFE05A4B1B6F03F0020371
:1054B000002BEED1FB7D012B05D1564B1B6C554AC1
:1054C00023F0805313647B689B69002B00F09B8062
:1054D000504B9B6803F00C03082B5CD07B689B69E6
:1054E000022B41D14C4B00221A60FEF717FF3861A6
:1054F00008E0FEF713FF02463B69D31A022B01D9DD
:10550000032381E0434B1B6803F00073002BF0D1B1
:105510007B68DA697B681B6A1A437B685B6A9B015C
:105520001A437B689B6A5B08013B1B041A437B6838
:10553000DB6A1B06374913434B60374B01221A6065
:10554000FEF7ECFE386108E0FEF7E8FE02463B6934
:10555000D31A022B01D9032356E02E4B1B6803F00C
:105560000073002BF0D04EE02B4B00221A60FEF7A8
:10557000D5FE386108E0FEF7D1FE02463B69D31A3A
:10558000022B01D903233FE0224B1B6803F0007379
:10559000002BF0D137E07B689B69012B01D10123FF
:1055A00032E01C4B5B68FB607B689B69012B28D059
:1055B000FB6803F480027B68DB699A4221D1FB68B7
:1055C00003F03F027B681B6A9A421AD1FA6847F6D9
:1055D000C07313407A68526A9201934211D1FB68FA
:1055E00003F440327B689B6A5B08013B1B049A42D0
:1055F00007D1FB6803F070627B68DB6A1B069A4286
:1056000001D0012300E0002318461837BD4680BDB5
:1056100000700040003802406000474280B584B00E
:1056200000AF786039607B68002B01D10123CCE0AA
:10563000684B1B6803F00F033A689A420CD9654B1C
:105640003A68D2B21A70634B1B6803F00F033A68D2
:105650009A4201D00123B8E07B681B6803F0020383
:10566000002B20D07B681B6803F00403002B05D0BF
:10567000594B9B68584A43F4E05393607B681B681E
:1056800003F00803002B05D0534B9B68524A43F4A8
:1056900060439360504B9B6823F0F0027B689B68EB
:1056A0004D4913438B607B681B6803F00103002B9B
:1056B00044D07B685B68012B07D1474B1B6803F420
:1056C0000033002B19D101237FE07B685B68022B3C
:1056D00003D07B685B68032B07D13F4B1B6803F04B
:1056E0000073002B09D101236FE03B4B1B6803F0D3
:1056F0000203002B01D1012367E0374B9B6823F0A5
:1057000003027B685B68344913438B60FEF706FE37
:10571000F8600AE0FEF702FE0246FB68D31A41F287
:105720008832934201D903234FE02B4B9B6803F04F
:105730000C027B685B689B009A42EBD1254B1B688F
:1057400003F00F033A689A420CD2224B3A68D2B265
:105750001A70204B1B6803F00F033A689A4201D07D
:10576000012332E07B681B6803F00403002B08D0A0
:10577000194B9B6823F4E0527B68DB68164913439E
:105780008B607B681B6803F00803002B09D0124B69
:105790009B6823F460427B681B69DB000E4913435E
:1057A0008B6000F021F802460B4B9B681B0903F04D
:1057B0000F030A49CB5C22FA03F3094A1360094B31
:1057C0001B681846FEF766FD002318461037BD46D5
:1057D00080BD00BF003C024000380240D0BC000841
:1057E0000C000020100000202DE9B04384B000AF71
:1057F00000237B600023FB6000233B600023BB6031
:10580000674B9B6803F00C03082B0DD0082B00F2AC
:10581000BD80002B02D0042B03D0B7E0614BBB60EE
:10582000B7E0614BBB60B4E05D4B5B6803F03F03E6
:105830007B605B4B5B6803F48003002B4DD0584BBF
:105840005B689B091A464FF0000340F2FF104FF0CF
:10585000000102EA000803EA0109404649464FF008
:1058600000024FF000034B0143EAD06342011046AF
:105870001946B0EB080061EB09014FF000024FF050
:1058800000038B0143EA90638201121A63EB010368
:105890004FF000004FF00001D90041EA5271D000F2
:1058A00002460B4612EB080243EB09034FF00000DF
:1058B0004FF00001590241EAD251500202460B4614
:1058C000104619467B681A464FF00003FBF7ECF9C7
:1058D00002460B461346FB604AE0314B5B689B096E
:1058E0001A464FF0000340F2FF104FF0000102EAA9
:1058F000000403EA0105204629464FF000024FF05C
:1059000000034B0143EAD063420110461946001BD5
:1059100061EB05014FF000024FF000038B0143EAF9
:1059200090638201121A63EB01034FF000004FF005
:105930000001D90041EA5271D00002460B4612190B
:1059400045EB03034FF000004FF00001990241EADC
:105950009251900202460B46104619467B681A4641
:105960004FF00003FBF7A0F902460B461346FB601D
:105970000B4B5B681B0C03F0030301335B003B60C4
:10598000FA683B68B2FBF3F3BB6002E0054BBB6017
:1059900000BFBB6818461037BD46BDE8B08300BFE6
:1059A000003802400024F40000127A0080B400AFF6
:1059B000034B1B681846BD465DF8047B704700BF6B
:1059C0000C00002080B500AFFFF7F0FF0246054B4A
:1059D0009B689B0A03F007030349CB5C22FA03F39D
:1059E000184680BD00380240E0BC000880B500AF1A
:1059F000FFF7DCFF0246054B9B685B0B03F00703D8
:105A00000349CB5C22FA03F3184680BD00380240FC
:105A1000E0BC000880B582B000AF78607B68002BE6
:105A200001D1012341E07B6893F83D30DBB2002BCC
:105A300006D17B68002283F83C207868FEF760F886
:105A40007B68022283F83D207B681A687B680433F8
:105A50001946104600F01EFE7B68012283F846209E
:105A60007B68012283F83E207B68012283F83F2077
:105A70007B68012283F840207B68012283F8412063
:105A80007B68012283F842207B68012283F843204F
:105A90007B68012283F844207B68012283F845203B
:105AA0007B68012283F83D20002318460837BD4655
:105AB00080BD000080B485B000AF78607B6893F84B
:105AC0003D30DBB2012B01D001234EE07B68022286
:105AD00083F83D207B681B68DA687B681B6842F0AE
